:100000000C945D000C9485000C9485000C94850084
:100010000C9485000C9485000C9485000C9485004C
:100020000C9485000C9485000C9485000C9485003C
:100030000C9485000C9485000C9485000C9485002C
:100040000C94F4020C9485000C94C2020C949C0253
:100050000C9485000C9485000C9485000C9485000C
:100060000C9485000C9485000000000024002700FB
:100070002A0000000000250028002B0004040404CE
:100080000404040402020202020203030303030342
:10009000010204081020408001020408102001021F
:1000A00004081020000000080002010000030407FB
:1000B0000000000000000000040511241FBECFEF67
:1000C000D8E0DEBFCDBF11E0A0E0B1E0E0EAFFE0A4
:1000D00002C005900D92A234B107D9F721E0A2E445
:1000E000B1E001C01D92AA3EB207E1F710E0CDE5F4
:1000F000D0E004C02197FE010E94C807CC35D1078B
:10010000C9F70E943E030C94CE070C940000AF92F6
:10011000BF92CF92DF92EF92FF920F931F93CF93F4
:10012000DF936C017B018B01040F151FEB015E0156
:10013000AE18BF08C017D10759F06991D601ED91EB
:10014000FC910190F081E02DC6010995892B79F78A
:10015000C501DF91CF911F910F91FF90EF90DF903C
:10016000CF90BF90AF900895FC01538D448D252F03
:1001700030E0842F90E0821B930B541710F0CF9641
:10018000089501970895FC01918D828D981761F073
:10019000A28DAE0FBF2FB11D5D968C91928D9F5F8A
:1001A0009F73928F90E008958FEF9FEF0895FC0169
:1001B000918D828D981731F0828DE80FF11D858D1C
:1001C00090E008958FEF9FEF0895FC01918D228DAF
:1001D000892F90E0805C9F4F821B91098F73992734
:1001E00008958DE491E00E94E50021E0892B09F457
:1001F00020E0822F089580E090E0892B29F00E9472
:10020000F10081110C9400000895FC01A48DA80F49
:10021000B92FB11DA35ABF4F2C91848D90E0019648
:100220008F739927848FA689B7892C93A089B18968
:100230008C91837080648C93938D848D981306C009
:100240000288F389E02D80818F7D80830895EF926D
:10025000FF920F931F93CF93DF93EC0181E0888F80
:100260009B8D8C8D98131AC0E889F989808185FF50
:1002700015C09FB7F894EE89FF896083E889F989F2
:1002800080818370806480839FBF81E090E0DF91F4
:10029000CF911F910F91FF90EF900895F62E0B8D47
:1002A00010E00F5F1F4F0F731127E02E8C8D8E1102
:1002B0000CC00FB607FCFACFE889F989808185FF69
:1002C000F5CFCE010E940501F1CFEB8DEC0FFD2F94
:1002D000F11DE35AFF4FF0829FB7F8940B8FEA8924
:1002E000FB8980818062CFCFCF93DF93EC01888D33
:1002F0008823B9F0AA89BB89E889F9898C9185FDA1
:1003000003C0808186FD0DC00FB607FCF7CF8C912E
:1003100085FFF2CF808185FFEDCFCE010E940501E0
:10032000E9CFDF91CF91089590E0FC01EC55FF4FAC
:100330002491FC01E057FF4F3491FC01E458FF4F3A
:10034000E491EE23C9F0222339F0233001F1A8F41F
:10035000213019F1223029F1F0E0EE0FFF1FEE58A5
:10036000FF4FA591B4918FB7F894EC91611126C01D
:1003700030953E233C938FBF08952730A9F0283055
:10038000C9F0243049F7809180008F7D03C08091AF
:1003900080008F7780938000DFCF84B58F7784BD16
:1003A000DBCF84B58F7DFBCF8091B0008F778093BA
:1003B000B000D2CF8091B0008F7DF9CF3E2BDACF45
:1003C000CF93DF9390E0FC01E057FF4F24918458D6
:1003D0009F4FFC0184918823D1F090E0880F991FF2
:1003E000FC01E859FF4FA591B491FC01EE58FF4F75
:1003F000C591D49161110EC09FB7F8948C91E22FF2
:10040000E0958E238C932881E223E8839FBFDF91C0
:10041000CF9108958FB7F894EC91E22BEC938FBFB6
:10042000F6CF8E3008F08E508770806480937C0009
:1004300080917A00806480937A0080917A0086FDB2
:10044000FCCF809178009091790008953FB7F8949F
:100450008091470190914801A0914901B0914A01D2
:1004600026B5A89B05C02F3F19F00196A11DB11D0F
:100470003FBFBA2FA92F982F8827BC01CD01620F4B
:10048000711D811D911D42E0660F771F881F991F06
:100490004A95D1F70895FC0101900020E9F73197C2
:1004A000AF01481B590BBC018DE491E00C9487000F
:1004B0008F929F92AF92BF920F931F93CF93DF9330
:1004C000CDB7DEB7A1970FB6F894DEBF0FBECDBF94
:1004D00019A2423008F44AE08E010F5D1F4F842EAE
:1004E000912CB12CA12CA50194010E945B05E62F53
:1004F000B901CA01EA30F4F4E05DD801EE938D0150
:10050000232B242B252B79F790E080E0109719F00E
:10051000CD010E944B02A1960FB6F894DEBF0FBE2C
:10052000CDBFDF91CF911F910F91BF90AF909F9062
:100530008F900895E95CE1CF1F920F920FB60F9252
:1005400011242F933F934F935F936F937F938F93D8
:100550009F93AF93BF93EF93FF938DE491E00E943D
:100560000501FF91EF91BF91AF919F918F917F9185
:100570006F915F914F913F912F910F900FBE0F9010
:100580001F9018951F920F920FB60F9211242F9360
:100590008F939F93EF93FF93E0915D01F0915E0144
:1005A0008081E0916301F091640182FD1BC0908124
:1005B000809166018F5F8F7320916701821741F0F0
:1005C000E0916601F0E0E35BFE4F958F809366015A
:1005D000FF91EF919F918F912F910F900FBE0F90F0
:1005E0001F9018958081F4CF1F920F920FB60F9233
:1005F00011242F933F938F939F93AF93BF93809139
:10060000430190914401A0914501B0914601309180
:10061000420123E0230F2D3758F50196A11DB11D8E
:10062000209342018093430190934401A09345019C
:10063000B09346018091470190914801A0914901F2
:10064000B0914A010196A11DB11D8093470190937D
:100650004801A0934901B0934A01BF91AF919F9186
:100660008F913F912F910F900FBE0F901F90189573
:1006700026E8230F0296A11DB11DD2CF789484B530
:10068000826084BD84B5816084BD85B5826085BD8E
:1006900085B5816085BD80916E00816080936E001C
:1006A000109281008091810082608093810080910E
:1006B00081008160809381008091800081608093BF
:1006C00080008091B10084608093B1008091B0007F
:1006D00081608093B00080917A00846080937A007A
:1006E00080917A00826080937A0080917A008160A4
:1006F00080937A0080917A00806880937A001092CB
:10070000C100E0915D01F0915E0182E08083E091A3
:100710005901F0915A011082E0915B01F0915C0166
:100720008FEC808310926501E0916101F09162018C
:1007300086E08083E0915F01F091600180818061BB
:100740008083E0915F01F091600180818860808307
:10075000E0915F01F0916001808180688083E09189
:100760005F01F091600180818F7D808360E08EE089
:100770000E94E00161E08BE00E94E00160E08FE018
:100780000E94E001C0E0D0E08EE00E941102909350
:100790004C0180934B0160E01816190614F59C017A
:1007A0008536910514F024E630E0032E000C440B4E
:1007B000550B2150310941095109AEEFB0E00E94BB
:1007C000500523E630E040E050E00E943105CA01C8
:1007D000B9016F5F7F4F8F4F9F4F70934C016093B4
:1007E0004B018BE00E949401C0904B01D0904C01D2
:1007F0000D2C000CEE08FF084AE0C701B601F7FE19
:100800000DC06DE28DE491E00E94270166277727F5
:10081000CB016C197D098E099F094AE00E9458029C
:1008200082E191E00E944B028FE00E941102BC0124
:10083000990F880B990B0E94A10626EF38E24CE92C
:1008400050E40E94560720E030E040E251E40E946C
:10085000FE056B017C014B015C0185E191E00E948A
:100860004B02A7019601C701B6010E94C307882366
:10087000B9F184E291E00E944B0280E391E00E9492
:100880004B020E9426024B015C0184E6C82ED12C4B
:10089000E12CF12C0E942602681979098A099B092A
:1008A000683E734081059105A8F321E0C21AD10882
:1008B000E108F10888EE880E83E0981EA11CB11CA7
:1008C000C114D104E104F10429F7209709F45CCFA5
:1008D0000E94F100882309F457CF0E94000054CFF2
:1008E00026013701E89477F82FEF3FEF4FE75FE7F6
:1008F000C301B2010E94C30781110DC02FEF3FEF6A
:100900004FE75FE7C301B2010E94F90518161CF416
:1009100088E291E0B0CF2FEF3FEF4FE75FE4C701F0
:10092000B6010E94510718161CF48CE291E0A3CF87
:100930002FEF3FEF4FE75FECC701B6010E94F905CB
:1009400087FDF3CF20E030E0A901C701B6010E9486
:10095000F90587FF0BC06DE28DE491E00E9427014D
:1009600046015701B7FAB094B7F8B0942AE037EDD2
:1009700043EA5BE3C501B4010E948D054B015C01B4
:100980000E9470066B017C010E949F069B01AC01D6
:10099000C501B4010E948C054B015C014AE0C7010E
:1009A000B6010E9458026EE28DE491E00E94270198
:1009B00020E030E040E251E4C501B4010E94560756
:1009C0004B015C010E9470066B01F12CE12C4AE0A6
:1009D000C701B6010E945802C701B6010E949F06D6
:1009E0009B01AC01C501B4010E948C0520E030E000
:1009F00040E251E40E9456070E94700690E080E0B9
:100A00004AE00E94580239CFEDE4F1E013821282ED
:100A100088EE93E0A0E0B0E084839583A683B7835B
:100A200084E091E09183808385EC90E095878487D2
:100A300084EC90E09787868780EC90E0918B808BA8
:100A400081EC90E0938B828B82EC90E0958B848B91
:100A500086EC90E0978B868B118E128E138E148EFF
:100A60000895052E97FB1EF400940E94480557FD3B
:100A700007D00E945B0507FC03D04EF40C94480598
:100A800050954095309521953F4F4F4F5F4F0895BA
:100A900090958095709561957F4F8F4F9F4F0895EA
:100AA0000E947D05A59F900DB49F900DA49F800D81
:100AB000911D11240895A1E21A2EAA1BBB1BFD0152
:100AC0000DC0AA1FBB1FEE1FFF1FA217B307E4072D
:100AD000F50720F0A21BB30BE40BF50B661F771F85
:100AE000881F991F1A9469F7609570958095909565
:100AF0009B01AC01BD01CF010895A29FB001B39F3E
:100B0000C001A39F700D811D1124911DB29F700D16
:100B1000811D1124911D08955058BB27AA270E94BA
:100B2000A4050C9417070E94090738F00E941007CB
:100B300020F039F49F3F19F426F40C9406070EF4C4
:100B4000E095E7FB0C940007E92F0E94280758F373
:100B5000BA17620773078407950720F079F4A6F5A2
:100B60000C944A070EF4E0950B2EBA2FA02D0B0122
:100B7000B90190010C01CA01A0011124FF27591BE2
:100B800099F0593F50F4503E68F11A16F040A22FE8
:100B9000232F342F4427585FF3CF46953795279559
:100BA000A795F0405395C9F77EF41F16BA0B620B58
:100BB000730B840BBAF09150A1F0FF0FBB1F661F9F
:100BC000771F881FC2F70EC0BA0F621F731F841FE2
:100BD00048F4879577956795B795F7959E3F08F008
:100BE000B0CF9395880F08F09927EE0F97958795CA
:100BF00008950E94DC0608F481E008950E94120620
:100C00000C9417070E94100758F00E94090740F043
:100C100029F45F3F29F00C94000751110C944B0705
:100C20000C9406070E94280768F39923B1F3552313
:100C300091F3951B550BBB27AA27621773078407EF
:100C400038F09F5F5F4F220F331F441FAA1FA9F385
:100C500035D00E2E3AF0E0E832D091505040E69573
:100C6000001CCAF72BD0FE2F29D0660F771F881FD4
:100C7000BB1F261737074807AB07B0E809F0BB0BC7
:100C8000802DBF01FF2793585F4F3AF09E3F5105DB
:100C900078F00C9400070C944B075F3FE4F3983E08
:100CA000D4F3869577956795B795F7959F5FC9F7C4
:100CB000880F911D9695879597F90895E1E0660F45
:100CC000771F881FBB1F621773078407BA0720F0BE
:100CD000621B730B840BBA0BEE1F88F7E095089527
:100CE0000E94300788F09F5798F0B92F9927B75185
:100CF000B0F0E1F0660F771F881F991F1AF0BA95C0
:100D0000C9F714C0B13091F00E944A07B1E00895CC
:100D10000C944A07672F782F8827B85F39F0B93FBE
:100D2000CCF3869577956795B395D9F73EF4909572
:100D30008095709561957F4F8F4F9F4F0895E894F0
:100D400009C097FB3EF490958095709561957F4F13
:100D50008F4F9F4F9923A9F0F92F96E9BB279395C1
:100D6000F695879577956795B795F111F8CFFAF4D1
:100D7000BB0F11F460FF1BC06F5F7F4F8F4F9F4F02
:100D800016C0882311F096E911C0772321F09EE860
:100D9000872F762F05C0662371F096E8862F70E0C6
:100DA00060E02AF09A95660F771F881FDAF7880FA0
:100DB0009695879597F90895990F0008550FAA0BF6
:100DC000E0E8FEEF16161706E807F907C0F012165E
:100DD0001306E407F50798F0621B730B840B950B61
:100DE00039F40A2661F0232B242B252B21F40895B6
:100DF0000A2609F4A140A6958FEF811D811D089553
:100E000097F99F6780E870E060E008959FEF80ECBD
:100E1000089500240A941616170618060906089560
:100E200000240A9412161306140605060895092EC6
:100E30000394000C11F4882352F0BB0F40F4BF2B35
:100E400011F460FF04C06F5F7F4F8F4F9F4F089575
:100E500057FD9058440F551F59F05F3F71F047956B
:100E6000880F97FB991F61F09F3F79F08795089550
:100E7000121613061406551FF2CF4695F1DF08C06F
:100E8000161617061806991FF1CF8695710561058C
:100E900008940895E894BB2766277727CB0197F934
:100EA00008950E94DC0608F48FEF08950E946907F8
:100EB0000C9417070E94090738F00E94100720F0D1
:100EC000952311F00C9400070C94060711240C9440
:100ED0004B070E94280770F3959FC1F3950F50E0D0
:100EE000551F629FF001729FBB27F00DB11D639FDC
:100EF000AA27F00DB11DAA1F649F6627B00DA11D82
:100F0000661F829F2227B00DA11D621F739FB00D27
:100F1000A11D621F839FA00D611D221F749F332797
:100F2000A00D611D231F849F600D211D822F762F30
:100F30006A2F11249F5750409AF0F1F088234AF00D
:100F4000EE0FFF1FBB1F661F771F881F9150504079
:100F5000A9F79E3F510580F00C9400070C944B07B5
:100F60005F3FE4F3983ED4F3869577956795B79500
:100F7000F795E7959F5FC1F7FE2B880F911D96951A
:100F8000879597F908950E94DC06880B990B0895C0
:100F9000EE0FFF1F0590F491E02D0994F894FFCF18
:100FA0000000000027018700B4007401E500C300C1
:100FB000D7000D0A0054656D7065726174757265B5
:100FC000203D20006E616E00696E66006F766600DF
:100FD000204465677265652043656C736975730AA3
:020FE00000000F
:00000001FF
