:100000000C9462000C948A000C948A000C948A0070
:100010000C948A000C948A000C948A000C948A0038
:100020000C948A000C948A000C948A000C94480466
:100030000C948A000C948A000C948A000C948A0018
:100040000C94FE030C948A000C94CC030C94A6032D
:100050000C948A000C948A000C948A000C948A00F8
:100060000C948A000C948A000000000024002700F1
:100070002A0000000000250028002B0000000008D6
:10008000000201000003040700000000000000005F
:1000900000000000230026002900040404040404D6
:1000A0000404020202020202030303030303010227
:1000B00004081020408001020408102001020408F6
:1000C0001020490511241FBECFEFD8E0DEBFCDBF01
:1000D00011E0A0E0B1E0EEE4F0E102C005900D9285
:1000E000AA31B107D9F721E0AAE1B1E001C01D9220
:1000F000A13FB207E1F710E0C2E6D0E004C02197CB
:10010000FE010E941F08C136D107C9F70E94A6054B
:100110000C9425080C940000CF92DF92EF92FF928E
:10012000DC01A03282E0B807D4F5A53BB10514F09C
:10013000A4EBB0E04091EF0128E830E0241B310946
:1001400047FD3395220F331F220F331F6901330FF1
:10015000EE08FF084091F00128E532E0241B310948
:1001600047FD3395220F331F220F331F032E000C40
:10017000440B550B2C193D094E095F09B7FF02C00E
:10018000B0E0A0E00E94B20724EB30E040E050E095
:100190000E948807C20ED31EE41EF51ED601E09110
:1001A000EE01EC3080F52091EF0188E890E0821BB1
:1001B000910927FD9395880F991F880F991FA817FC
:1001C000B90784F02091F00188E592E0821B910943
:1001D00027FD9395880F991F880F991FA817B907B6
:1001E0000CF4CD010297880F991F4FB7F8942E2F6A
:1001F00030E0F901EE0FFF1FE20FF31FE753FE4F50
:10020000928381834FBFFF90EF90DF90CF9008954E
:10021000AF92BF92CF92DF92EF92FF920F931F9314
:10022000CF93DF936C017B018B01040F151FEB0152
:100230005E01AE18BF08C017D10759F06991D60109
:10024000ED91FC910190F081E02DC6010995892B7B
:1002500079F7C501DF91CF911F910F91FF90EF903A
:10026000DF90CF90BF90AF900895FC01538D448DE7
:10027000252F30E0842F90E0821B930B541710F051
:10028000CF96089501970895FC01918D828D98175E
:1002900061F0A28DAE0FBF2FB11D5D968C91928D36
:1002A0009F5F9F73928F90E008958FEF9FEF089567
:1002B000FC01918D828D981731F0828DE80FF11D30
:1002C000858D90E008958FEF9FEF0895FC01918D4B
:1002D000228D892F90E0805C9F4F821B91098F7344
:1002E000992708958CE291E00E94660121E0892B14
:1002F00009F420E0822F089580E090E0892B29F016
:100300000E94720181110C9400000895FC01A48DDB
:10031000A80FB92FB11DA35ABF4F2C91848D90E027
:1003200001968F739927848FA689B7892C93A0890A
:10033000B1898C91837080648C93938D848D981394
:1003400006C00288F389E02D80818F7D8083089527
:10035000EF92FF920F931F93CF93DF93EC0181E015
:10036000888F9B8D8C8D98131AC0E889F9898081BC
:1003700085FF15C09FB7F894EE89FF896083E889EF
:10038000F98980818370806480839FBF81E090E0E1
:10039000DF91CF911F910F91FF90EF900895F62E6E
:1003A0000B8D10E00F5F1F4F0F731127E02E8C8D08
:1003B0008E110CC00FB607FCFACFE889F98980814D
:1003C00085FFF5CFCE010E948601F1CFEB8DEC0FBA
:1003D000FD2FF11DE35AFF4FF0829FB7F8940B8F6A
:1003E000EA89FB8980818062CFCFCF93DF93EC01D4
:1003F000888D8823B9F0AA89BB89E889F9898C910D
:1004000085FD03C0808186FD0DC00FB607FCF7CFC8
:100410008C9185FFF2CF808185FFEDCFCE010E94C8
:100420008601E9CFDF91CF91089590E0FC01E45877
:10043000FF4F2491FC01E255FF4F3491FC01E65639
:10044000FF4FE491EE23C9F0222339F0233001F16C
:10045000A8F4213019F1223029F1F0E0EE0FFF1F4E
:10046000EE58FF4FA591B4918FB7F894EC916111BC
:1004700026C030953E233C938FBF08952730A9F0C6
:100480002830C9F0243049F7809180008F7D03C067
:10049000809180008F7780938000DFCF84B58F7745
:1004A00084BDDBCF84B58F7DFBCF8091B0008F778B
:1004B0008093B000D2CF8091B0008F7DF9CF3E2BDA
:1004C000DACFCF93DF9390E0FC01E255FF4F249108
:1004D00086569F4FFC0184918823D1F090E0880FCD
:1004E000991FFC01E859FF4FA591B491FC01EE580A
:1004F000FF4FC591D49161110EC09FB7F8948C91B4
:10050000E22FE0958E238C932881E223E8839FBF1E
:10051000DF91CF9108958FB7F894EC91E22BEC9393
:100520008FBFF6CF3FB7F8948091200190912101C1
:10053000A0912201B091230126B5A89B05C02F3FB1
:1005400019F00196A11DB11D3FBFBA2FA92F982FF9
:100550008827BC01CD01620F711D811D911D42E0F4
:10056000660F771F881F991F4A95D1F708958F92BC
:100570009F92AF92BF92CF92DF92EF92FF920E9432
:1005800092024B015C018AE0C82ED12CE12CF12CA7
:100590000E949202681979098A099B09683E734092
:1005A00081059105A8F321E0C21AD108E108F108FC
:1005B00088EE880E83E0981EA11CB11CC114D104E2
:1005C000E104F10429F7FF90EF90DF90CF90BF9006
:1005D000AF909F908F900895FC0101900020E9F763
:1005E0003197AF01481B590BBC018CE291E00C9490
:1005F00008018F929F92AF92BF920F931F93CF9358
:10060000DF93CDB7DEB7A1970FB6F894DEBF0FBE6C
:10061000CDBF19A2423008F44AE08E010F5D1F4F92
:10062000842E912CB12CA12CA50194010E94BA0713
:10063000E62FB901CA01EA30F4F4E05DD801EE9387
:100640008D01232B242B252B79F790E080E0109748
:1006500019F0CD010E94EC02A1960FB6F894DEBF0E
:100660000FBECDBFDF91CF911F910F91BF90AF9083
:100670009F908F900895E95CE1CFCF92DF92EF9247
:10068000FF92CF93DF936B017C016DE28CE291E0EE
:100690000E94A801EC0166277727CB016C197D0920
:1006A0008E099F094AE00E94F9028C0F9D1FDF917D
:1006B000CF91FF90EF90DF90CF900895CF93DF938D
:1006C000BC01990F880B990B97FF0CC00E943D034A
:1006D000EC0182E191E00E94EC028C0F9D1FDF9102
:1006E000CF9108954AE00E94F902F2CFBC01990F20
:1006F000880B990B97FD0C943D034AE00C94F9028A
:100700000F931F9390E0FC01E255FF4F6491FC01B1
:10071000E656FF4FE491F0E0EE0FFF1FE057FF4F6A
:100720008591949100E412E42FE030E0462F0E947E
:100730000405611571058105910529F06F5F7F4FF3
:100740008F4F9F4F9F701F910F9108951F920F928F
:100750000FB60F9211242F933F934F935F936F9394
:100760007F938F939F93AF93BF93EF93FF938CE20D
:1007700091E00E948601FF91EF91BF91AF919F910F
:100780008F917F916F915F914F913F912F910F903A
:100790000FBE0F901F9018951F920F920FB60F92D9
:1007A00011242F938F939F93EF93FF93E0913C013C
:1007B000F0913D018081E0914201F091430182FD81
:1007C0001BC09081809145018F5F8F7320914601FE
:1007D000821741F0E0914501F0E0E45DFE4F958F16
:1007E00080934501FF91EF919F918F912F910F90F1
:1007F0000FBE0F901F9018958081F4CF1F920F921B
:100800000FB60F9211242F933F938F939F93AF9323
:10081000BF9380911C0190911D01A0911E01B09188
:100820001F0130911B0123E0230F2D3758F501964E
:10083000A11DB11D20931B0180931C0190931D01EC
:10084000A0931E01B0931F0180912001909121017E
:10085000A0912201B09123010196A11DB11D8093A9
:10086000200190932101A0932201B0932301BF9115
:10087000AF919F918F913F912F910F900FBE0F904D
:100880001F90189526E8230F0296A11DB11DD2CF07
:100890001F920F920FB60F9211242F933F934F93F5
:1008A0005F936F937F938F939F93AF93BF93CF93F8
:1008B000DF93EF93FF9380911A01C091ED01D0E097
:1008C00087FF24C0109285001092840080911A0145
:1008D0008F5F80931A0180911A01082E000C990BEA
:1008E0008C179D0724F480911A018C30C4F18091FB
:1008F000840090918500049680349C4908F47AC065
:100900008091840090918500049676C080911A01B0
:10091000082E000C990B8C179D07C4F6E0911A0164
:100920008E2FEE0F990BFC01EE0FFF1FE80FF91F42
:10093000E753FE4F808186FFC9CFE0911A018E2FC9
:10094000EE0F990BFC01EE0FFF1FE80FF91FE753A5
:10095000FE4F808160E08F730E941502B7CF209117
:10096000840030918500E0911A018E2FEE0F990BD3
:10097000FC01EE0FFF1FE80FF91FE753FE4F8181C7
:100980009281820F931F9093890080938800E09159
:100990001A018E2FEE0F990BFC01EE0FFF1FE80FCF
:1009A000F91FE753FE4F808186FF11C0E0911A01C5
:1009B0008E2FEE0F990BFC01EE0FFF1FE80FF91FB2
:1009C000E753FE4F808161E08F730E941502FF9113
:1009D000EF91DF91CF91BF91AF919F918F917F91D7
:1009E0006F915F914F913F912F910F900FBE0F909C
:1009F0001F90189580E49CE990938900809388006B
:100A00008FEF80931A01E3CFCF92DF92EF92FF92A4
:100A10000F931F93E82FF92F05C0015011092109E9
:100A2000310961F1908196239417B9F305C0015003
:100A300011092109310911F1908196239413F7CFFF
:100A4000C12CD12CE12CF12C0AC08FEFC81AD80A86
:100A5000E80AF80A0C151D052E053F0579F080817E
:100A60008623841791F36C2D7D2D8E2D9F2D1F9144
:100A70000F91FF90EF90DF90CF90089560E070E0CD
:100A800080E090E01F910F91FF90EF90DF90CF906A
:100A9000089510922F0110922E0188EE93E0A0E0AD
:100AA000B0E08093300190933101A0933201B09374
:100AB000330184E091E090932D0180932C0185EC2B
:100AC00090E0909339018093380184EC90E090930A
:100AD0003B0180933A0180EC90E090933D0180933C
:100AE0003C0181EC90E090933F0180933E0182ECC9
:100AF00090E0909341018093400186EC90E09093C8
:100B000043018093420110924501109246011092D8
:100B10004701109248018091ED018C3098F491E0EA
:100B2000980F9093ED018093EE0190E0FC01EE0FA1
:100B3000FF1FE80FF91FE753FE4F88EB9BE09283FE
:100B4000818308958FEF8093EE010895789484B5A2
:100B5000826084BD84B5816084BD85B5826085BDB9
:100B600085B5816085BD80916E00816080936E0047
:100B70001092810080918100826080938100809139
:100B800081008160809381008091800081608093EA
:100B900080008091B10084608093B1008091B000AA
:100BA00081608093B00080917A00846080937A00A5
:100BB00080917A00826080937A0080917A008160CF
:100BC00080937A0080917A00806880937A001092F6
:100BD000C1008091EE018C3008F051C061E089E0E5
:100BE0000E9461028091EE01282F30E0F901EE0FA2
:100BF000FF1FE20FF31FE753FE4F9081907C996037
:100C000090831092EF011092F0012CE0622F0E946D
:100C1000EB07829FB001112430E020E0AB01420FCE
:100C2000531FFA01EE0FFF1FE40FF51FE753FE4FAE
:100C3000908196FD16C02F5F3F4F2C30310571F724
:100C400081110FC01092800082E080938100109289
:100C5000850010928400B19A80916F008260809329
:100C60006F00E091EE018E2F90E0FC01EE0FFF1F70
:100C7000E80FF91FE753FE4F80818064808361E0B5
:100C800088E00E94610260E087E00E946102E091DA
:100C90003C01F0913D0182E08083E0913801F091C8
:100CA00039011082E0913A01F0913B018FEC808391
:100CB00010924401E0914001F091410186E080836F
:100CC000E0913E01F0913F01808180618083E0915D
:100CD0003E01F0913F01808188608083E0913E0178
:100CE000F0913F01808180688083E0913E01F09126
:100CF0003F0180818F7D8083C3ECD0E02AE3822E88
:100D0000912CA12CB12C0AE010E094EBE92EF12CEF
:100D100080E0C82E80E0D82E10922B0110922A017C
:100D200080912A0190912B01843B91050CF06CC0BD
:100D30000E948C00109229011092280180912801B4
:100D4000909129010B977CF560E088E00E941502E4
:100D5000CE010197F1F761E088E00E941502CE0113
:100D60000197F1F760E088E00E94150287E00E9499
:100D70008003A50194010E94BA07809126019091F9
:100D80002701280F391F30932701209326010E9445
:100D9000B702809128019091290101969093290131
:100DA00080932801CBCF8091260190912701B80133
:100DB0000E94F70770932501609324011092290186
:100DC00010922801109227011092260185E191E0EE
:100DD0000E94EC0280912A0190912B010E947603DF
:100DE00087E191E00E94EC0280912401909125011D
:100DF0000E945E0380912A0190912B0101969093AD
:100E00002B0180932A018CCFF0922B01E0922A01D2
:100E100080912A0190912B01181619060CF06CC0D4
:100E20000E948C00109229011092280180912801C3
:100E3000909129010B977CF560E088E00E941502F3
:100E4000CE010197F1F761E088E00E941502CE0122
:100E50000197F1F760E088E00E94150287E00E94A8
:100E60008003A50194010E94BA0780912601909108
:100E70002701280F391F30932701209326010E9454
:100E8000B702809128019091290101969093290140
:100E900080932801CBCF8091260190912701B80142
:100EA0000E94F70770932501609324011092290195
:100EB00010922801109227011092260185E191E0FD
:100EC0000E94EC0280912A0190912B010E947603EE
:100ED00087E191E00E94EC0280912401909125012C
:100EE0000E945E0380912A0190912B0101979093BB
:100EF0002B0180932A018CCFC114D10409F40CCFAB
:100F00000E947201882309F403CF0E940000FDCEE5
:100F1000052E97FB1EF400940E949F0757FD07D0F3
:100F20000E94BA0707FC03D04EF40C949F0750951B
:100F30004095309521953F4F4F4F5F4F08959095C5
:100F40008095709561957F4F8F4F9F4F08950E94B8
:100F5000DC07A59F900DB49F900DA49F800D911D5F
:100F600011240895B7FF0C94A7070E94A707821BBE
:100F7000930B0895A1E21A2EAA1BBB1BFD010DC005
:100F8000AA1FBB1FEE1FFF1FA217B307E407F50739
:100F900020F0A21BB30BE40BF50B661F771F881F15
:100FA000991F1A9469F760957095809590959B01AB
:100FB000AC01BD01CF010895A29FB001B39FC00154
:100FC000A39F700D811D1124911DB29F700D811D75
:100FD0001124911D0895991B79E004C0991F96175B
:100FE00008F0961B881F7A95C9F78095089597FB9E
:100FF000072E16F4009407D077FD09D00E940B0845
:1010000007FC05D03EF4909581959F4F089570950B
:1010100061957F4F0895AA1BBB1B51E107C0AA1F12
:10102000BB1FA617B70710F0A61BB70B881F991F89
:101030005A95A9F780959095BC01CD010895EE0FC2
:0E104000FF1F0590F491E02D0994F894FFCF66
:10104E0000000000A80108013501F5016601440108
:0A105E0058010D0A0058005600006A
:00000001FF
